{
  "_format": "hh-sol-artifact-1",
  "contractName": "CoinFlip",
  "sourceName": "contracts/CoinFlip.sol",
  "abi": [
    {
      "inputs": [],
      "stateMutability": "nonpayable",
      "type": "constructor"
    },
    {
      "anonymous": false,
      "inputs": [
        {
          "indexed": true,
          "internalType": "address",
          "name": "player",
          "type": "address"
        },
        {
          "indexed": false,
          "internalType": "bool",
          "name": "won",
          "type": "bool"
        },
        {
          "indexed": false,
          "internalType": "uint256",
          "name": "amount",
          "type": "uint256"
        }
      ],
      "name": "CoinFlipped",
      "type": "event"
    },
    {
      "inputs": [
        {
          "internalType": "bool",
          "name": "choice",
          "type": "bool"
        }
      ],
      "name": "flipCoin",
      "outputs": [],
      "stateMutability": "payable",
      "type": "function"
    },
    {
      "inputs": [],
      "name": "fundContract",
      "outputs": [],
      "stateMutability": "payable",
      "type": "function"
    },
    {
      "inputs": [],
      "name": "owner",
      "outputs": [
        {
          "internalType": "address",
          "name": "",
          "type": "address"
        }
      ],
      "stateMutability": "view",
      "type": "function"
    },
    {
      "inputs": [
        {
          "internalType": "uint256",
          "name": "amount",
          "type": "uint256"
        }
      ],
      "name": "withdraw",
      "outputs": [],
      "stateMutability": "nonpayable",
      "type": "function"
    },
    {
      "stateMutability": "payable",
      "type": "receive"
    }
  ],
  "bytecode": "0x608060405234801561001057600080fd5b50336000806101000a81548173ffffffffffffffffffffffffffffffffffffffff021916908373ffffffffffffffffffffffffffffffffffffffff160217905550610876806100606000396000f3fe6080604052600436106100435760003560e01c80632e1a7d4d1461004f5780637b8ff38f146100785780638da5cb5b14610094578063bd097e21146100bf5761004a565b3661004a57005b600080fd5b34801561005b57600080fd5b50610076600480360381019061007191906104c0565b6100c9565b005b610092600480360381019061008d9190610497565b610204565b005b3480156100a057600080fd5b506100a96103b9565b6040516100b691906105d6565b60405180910390f35b6100c76103dd565b005b60008054906101000a900473ffffffffffffffffffffffffffffffffffffffff1673ffffffffffffffffffffffffffffffffffffffff163373ffffffffffffffffffffffffffffffffffffffff1614610157576040517f08c379a000000000000000000000000000000000000000000000000000000000815260040161014e9061061a565b60405180910390fd5b8047101561019a576040517f08c379a00000000000000000000000000000000000000000000000000000000081526004016101919061065a565b60405180910390fd5b60008054906101000a900473ffffffffffffffffffffffffffffffffffffffff1673ffffffffffffffffffffffffffffffffffffffff166108fc829081150290604051600060405180830381858888f19350505050158015610200573d6000803e3d6000fd5b5050565b60003411610247576040517f08c379a000000000000000000000000000000000000000000000000000000000815260040161023e9061063a565b60405180910390fd5b60008060024442610258919061068b565b6102629190610783565b149050811515811515141561036357600060023461028091906106e1565b9050804710156102c5576040517f08c379a00000000000000000000000000000000000000000000000000000000081526004016102bc9061065a565b60405180910390fd5b3373ffffffffffffffffffffffffffffffffffffffff166108fc829081150290604051600060405180830381858888f1935050505015801561030b573d6000803e3d6000fd5b503373ffffffffffffffffffffffffffffffffffffffff167f8078207cf86aea9e4334ee560bff725935f95e53673ebfb3e17dcb80b3c4af2f6001346040516103559291906105f1565b60405180910390a2506103b5565b3373ffffffffffffffffffffffffffffffffffffffff167f8078207cf86aea9e4334ee560bff725935f95e53673ebfb3e17dcb80b3c4af2f6000346040516103ac9291906105f1565b60405180910390a25b5050565b60008054906101000a900473ffffffffffffffffffffffffffffffffffffffff1681565b60008054906101000a900473ffffffffffffffffffffffffffffffffffffffff1673ffffffffffffffffffffffffffffffffffffffff163373ffffffffffffffffffffffffffffffffffffffff161461046b576040517f08c379a00000000000000000000000000000000000000000000000000000000081526004016104629061061a565b60405180910390fd5b565b60008135905061047c81610812565b92915050565b60008135905061049181610829565b92915050565b6000602082840312156104a957600080fd5b60006104b78482850161046d565b91505092915050565b6000602082840312156104d257600080fd5b60006104e084828501610482565b91505092915050565b6104f28161073b565b82525050565b6105018161074d565b82525050565b6000610514600d8361067a565b91507f4e6f7420746865206f776e6572000000000000000000000000000000000000006000830152602082019050919050565b6000610554601a8361067a565b91507f4d7573742073656e6420736f6d652045544820746f20666c69700000000000006000830152602082019050919050565b6000610594601d8361067a565b91507f496e73756666696369656e7420636f6e74726163742062616c616e63650000006000830152602082019050919050565b6105d081610779565b82525050565b60006020820190506105eb60008301846104e9565b92915050565b600060408201905061060660008301856104f8565b61061360208301846105c7565b9392505050565b6000602082019050818103600083015261063381610507565b9050919050565b6000602082019050818103600083015261065381610547565b9050919050565b6000602082019050818103600083015261067381610587565b9050919050565b600082825260208201905092915050565b600061069682610779565b91506106a183610779565b9250827fffffffffffffffffffffffffffffffffffffffffffffffffffffffffffffffff038211156106d6576106d56107b4565b5b828201905092915050565b60006106ec82610779565b91506106f783610779565b9250817fffffffffffffffffffffffffffffffffffffffffffffffffffffffffffffffff04831182151516156107305761072f6107b4565b5b828202905092915050565b600061074682610759565b9050919050565b60008115159050919050565b600073ffffffffffffffffffffffffffffffffffffffff82169050919050565b6000819050919050565b600061078e82610779565b915061079983610779565b9250826107a9576107a86107e3565b5b828206905092915050565b7f4e487b7100000000000000000000000000000000000000000000000000000000600052601160045260246000fd5b7f4e487b7100000000000000000000000000000000000000000000000000000000600052601260045260246000fd5b61081b8161074d565b811461082657600080fd5b50565b61083281610779565b811461083d57600080fd5b5056fea26469706673582212206f233066ea6a11102e96250636fb4bf2a85c565f40962048903ef1a1ba99041a64736f6c63430008000033",
  "linkReferences": {},
  "deployedLinkReferences": {}
}